:100000007DC000009CC000009AC0000005C2000036
:100010002AC2000094C0000092C0000090C00000FE
:100020008EC000008CC000008AC0000088C00000A4
:1000300086C0000084C0000082C0000080C00000B4
:100040007EC000007CC000007AC0000078C00000C4
:1000500076C0000074C0000072C0000070C00000D4
:100060006EC000006CC000006AC0000068C00000E4
:1000700066C0000064C0000062C0000060C00000F4
:100080005EC000005CC000005AC0000058C0000004
:1000900056C0000054C0000052C0000050C0000014
:1000A0004EC000004CC000004AC0000048C0000024
:1000B00046C0000044C0000042C0000040C0000034
:1000C0003EC000003CC000003AC0000038C0000044
:1000D00036C0000034C0000032C0000030C0000054
:1000E0002EC00000FA0001010901110119012101CE
:1000F00079013D017901590161018D0211241FBE71
:10010000CFEFD1E2DEBFCDBF00E00CBF22E0A0E028
:10011000B2E001C01D92AB30B207E1F710E0CEE7CC
:10012000D0E000E005C021970109802FFE019ED399
:10013000CD37D10780E00807B1F7DED19FC360CF8C
:100140000F931F93CF93DF93CDB7DEB727970FB6EB
:10015000F894DEBF0FBECDBF8C01D7D2C801019687
:1001600009D1C8010296E9D0C8010396EBD1CE01AE
:100170000796CBD2CE010696FDD0CE010596DDD0F6
:10018000CE010196DFD189819A81AB81BC81F801D2
:1001900083839483A583B68327960FB6F894DEBF36
:1001A0000FBECDBFDF91CF911F910F9108950F9397
:1001B0001F93CF93DF93EC0178876F8361507109B0
:1001C0006A30710518F462E070E0E1D28F819885A1
:1001D0000B9721F463E070E0CE01D9D2EF81F8856E
:1001E0003197EB30F10508F084C08827EE58FF4FB7
:1001F0008F4F3CC34AE050E062E370E0CE010396CB
:100200001AD24AE050E064E670E0CE01039613D2C1
:1002100070C04AE050E06AE070E0CE0103960BD275
:1002200068C04AE050E06EE170E0CE01039603D270
:1002300060C044E150E06EE170E0CE010396FBD176
:1002400058C08E010E5F1F4FC80188D0239668E00A
:1002500070E0CE014CD22FEF89E698E1215080402A
:100260009040E1F700C00000C80171D04AE050E0C2
:1002700062E370E0CE0184D13CC08E010E5F1F4F5F
:10028000C8016CD0239668E070E0CE0130D22FEF29
:1002900089E698E1215080409040E1F700C00000DD
:1002A000C80155D04AE050E062E370E0CE01C3D10E
:1002B00020C04AE050E062E370E0CE010396BBD17B
:1002C00018C08E010E5F1F4FC80148D068E070E073
:1002D000CE0103960CD22FEF89E698E121508040A1
:1002E0009040E1F700C00000C8013FD0CE01019668
:1002F00052D0DF91CF911F910F910895CF93DF934B
:10030000EC0161E070E043D22FEF81E19AE72150E8
:1003100080409040E1F700C00000CE01019634D04B
:10032000CE01029614D04AE050E066E470E0CE01BF
:10033000039681D1DF91CF91089583EA8093800065
:1003400081E0809381008FEF84B915B8089583EC24
:1003500090E090938B0080938A0008958BE693E061
:1003600090938B0080938A00089510928B001092D6
:100370008A00089583EA8093800081E08093810061
:100380008FEF84B915B808958BE693E090938900B8
:100390008093880008951092890010928800089533
:1003A000019731F46F3F7F4F19F480E092E0C8CE9F
:1003B00008958DB38C608DBBE9E6F0E08081806F9D
:1003C000808308958DB3837F8DBBE9E6F0E0808163
:1003D0008F7080830895F6DF8091090290910A0260
:1003E000019690930A02809309026091090270912C
:1003F0000A0280E092E0DBDE8091090290910A021D
:1004000085B92FEF8CEB9FE1215080409040E1F7C0
:1004100000C00000CECF08951F920F920FB60F922A
:1004200011240BB60F922F933F934F935F936F93CB
:100430007F938F939F93AF93BF93EF93FF93CBDF04
:10044000FF91EF91BF91AF919F918F917F916F91AC
:100450005F914F913F912F910F900BBE0F900FBE68
:100460000F901F9018951F920F920FB60F921124A4
:100470000BB60F922F933F934F935F936F937F939E
:100480008F939F93AF93BF93EF93FF93A4DFFF915D
:10049000EF91BF91AF919F918F917F916F915F91FC
:1004A0004F913F912F910F900BBE0F900FBE0F9069
:1004B0001F90189521E030E081E090E0243631056E
:1004C000A4F485B9880F991F8138910514F081E053
:1004D00090E04FEF59EF60E0415050406040E1F74D
:1004E00000C000002F5F3F4FE9CF15B8089511B845
:1004F0000799FECFDFCF08958FEF84B915B8F7DFE6
:100500008DB384608DBBE9E6F0E0808180638083F9
:10051000789480E092E0F2DEFFCF6FEF7FEF81E032
:1005200090E03ECF089520E030E0281739074CF4E2
:10053000EFE9FFE03197F1F700C000002F5F3F4F78
:10054000F4CF0895DC0183E28093A00083E08093E0
:10055000A100E1E0F1E0908190619083908198604A
:100560009083E2E0F1E090819860908381E090E0F8
:1005700011969C938E9313961C921E921297089537
:10058000CF92DF92EF92FF920F931F93CF93DF935F
:100590006C018B017A01FC0180819181019721F42A
:1005A00060E070E0C60147D0E2E0F1E08081886061
:1005B0008083F60111821082C281D381C017D107D6
:1005C000BCF4C017D1075CF59E01220F331FCE018A
:1005D000880F991F880F991F880F991F820F931FEB
:1005E0009093AB008093AA00C7019DDF2196E9CFCD
:1005F0000C171D07A4F49E01220F331FCE01880F94
:10060000991F880F991F880F991F820F931F90932E
:10061000AB008093AA00C70186DF2197E9CFF601DE
:1006200013830283DF91CF911F910F91FF90EF9081
:10063000DF90CF900895CF92DF92EF92FF920F93C9
:100640001F93CF93DF936C018B017A01FC018081B2
:100650009181892B21F460E070E0C60191DFE2E036
:10066000F1E08081108281E090E0F6019183808347
:10067000C281D381C017D107BCF4C017D1075CF584
:100680009E01220F331FCE01880F991F880F991FDB
:10069000880F991F820F931F9093AB008093AA003D
:1006A000C70141DF2196E9CF0C171D07A4F49E0175
:1006B000220F331FCE01880F991F880F991F880FB3
:1006C000991F820F931F9093AB008093AA00C701DC
:1006D0002ADF2197E9CFF60113830283DF91CF91BF
:1006E0001F910F91FF90EF90DF90CF900895AB0195
:1006F000FC0120813181232B21F460E070E040CFA8
:10070000089560E070E097CF08950F931F93CF9303
:10071000DF931F92CDB7DEB78C0194D0CE01019646
:1007200091D06EE7C8019BD069E0C80198D060E025
:10073000C80195D060E0C80192D062E0C8018FD0B6
:100740006FEFC8018CD065EFC80189D06FEEC8018A
:1007500086D06EE7C80183D066E0C80180D060E033
:10076000C8017DD060E0C8017AD06EE1C80177D0C1
:100770006FEFC80174D06CEDC80171D06FEEC80185
:100780006ED00F90DF91CF911F910F9108950F932D
:100790001F93CF93DF93EC018B0161307105B9F4A6
:1007A0006EE75DD06FE0CE015AD060E0CE0157D049
:1007B00061E0CE0154D061E0CE0151D06FEFCE01A7
:1007C0004ED06FEECE014BD06FEECE0148D002304E
:1007D0001105C1F46EE7CE0142D06FE0CE013FD0EB
:1007E00060E0CE013CD061E0CE0139D062E0CE01C4
:1007F00036D06FEFCE0133D06EEECE0130D06FEE3B
:10080000CE012DD003301105C1F46EE7CE0127D003
:100810006FE0CE0124D060E0CE0121D061E0CE01B6
:100820001ED063E0CE011BD06FEFCE0118D06DEE6D
:10083000CE0115D06FEECE0112D0DF91CF911F9176
:100840000F91089588E690E09093D5008093D400AE
:1008500088E18093D10086E08093D2000895809152
:10086000D00085FFFCCF6093D6000895EE0FFF1FE8
:10087000881F8BBF0790F691E02D1994F894FFCF55
:00000001FF
