:1000000072C0000091C000008FC0000081C10000DC
:10001000A6C1000089C0000087C0000085C00000A4
:1000200083C0000081C000007FC000007DC00000D0
:100030007BC0000079C0000077C0000075C00000E0
:1000400073C0000071C000006FC000006DC00000F0
:100050006BC0000069C0000067C0000065C0000000
:1000600063C0000061C000005FC000005DC0000010
:100070005BC0000059C0000057C0000055C0000020
:1000800053C0000051C000004FC000004DC0000030
:100090004BC0000049C0000047C0000045C0000040
:1000A00043C0000041C000003FC000003DC0000050
:1000B0003BC0000039C0000037C0000035C0000060
:1000C00033C0000031C000002FC000002DC0000070
:1000D0002BC0000029C0000027C0000025C0000080
:1000E00023C00000090211241FBECFEFD1E2DEBF02
:1000F000CDBF00E00CBF22E0A0E0B2E001C01D9245
:10010000AB30B207E1F710E0C3E7D0E000E005C094
:1001100021970109802FFE0125D3C237D10780E046
:100120000807B1F765D126C36BCF0F931F93CF9309
:10013000DF93CDB7DEB727970FB6F894DEBF0FBEBB
:10014000CDBF8C015ED2C801019695D0C801029640
:1001500081D0C801039672D1CE01079652D2CE014A
:10016000069689D0CE01059675D0CE01019666D14E
:1001700089819A81AB81BC81F80183839483A583B3
:10018000B68327960FB6F894DEBF0FBECDBFDF91C2
:10019000CF911F910F910895CF93DF93EC01788752
:1001A0006F83615071096A30710518F462E070E084
:1001B0006AD28F8198850B9721F463E070E0CE01BD
:1001C00062D28F8198858830910589F08B309105B6
:1001D000D1F00697E9F4239668E070E0CE0103D2EF
:1001E0004AE050E060E570E0CE0146D111C02396B0
:1001F00068E070E0CE01F7D144E150E064E670E0E1
:10020000CE0195D105C068E070E0CE010396EBD138
:10021000DF91CF910895CF93DF93EC0161E070E01F
:1002200032D22FEF81E19AE7215080409040E1F7F0
:1002300000C00000CE01019628D0CE01029614D055
:100240004AE050E060E570E0CE01039670D1DF91A6
:10025000CF91089583EA8093800081E080938100AC
:100260008FEF84B915B8089581E590E090938B00E5
:1002700080938A00089583EA8093800081E08093D0
:1002800081008FEF84B915B8089586E194EF9093BB
:100290008900809388000895019731F46F3F7F4F64
:1002A00019F480E092E041CF08958DB38C608DBB4E
:1002B000E9E6F0E08081806F808308958DB3837FCD
:1002C0008DBBE9E6F0E080818F7080830895F6DFD2
:1002D0008091090290910A02019690930A028093FC
:1002E00009026091090270910A0280E092E054DFF5
:1002F0008091090290910A0285B92FEF87E893E176
:10030000215080409040E1F700C00000CECF08951A
:100310001F920F920FB60F9211240BB60F922F93CC
:100320003F934F935F936F937F938F939F93AF937D
:10033000BF93EF93FF93CBDFFF91EF91BF91AF910D
:100340009F918F917F916F915F914F913F912F91ED
:100350000F900BBE0F900FBE0F901F9018951F921D
:100360000F920FB60F9211240BB60F922F933F935B
:100370004F935F936F937F938F939F93AF93BF93AD
:10038000EF93FF93A4DFFF91EF91BF91AF919F9106
:100390008F917F916F915F914F913F912F910F902E
:1003A0000BBE0F900FBE0F901F90189521E030E00C
:1003B00081E090E024363105A4F485B9880F991FB7
:1003C0008138910514F081E090E04FEF59EF60E043
:1003D000415050406040E1F700C000002F5F3F4FA8
:1003E000E9CF15B8089511B80799FECFDFCF08956A
:1003F0008FEF84B915B8F7DF8DB384608DBBE9E664
:10040000F0E0808180638083789480E092E003DF75
:10041000FFCF6FEF7FEF81E090E03ECF089520E0C7
:1004200030E0281739074CF4EFE9FFE03197F1F796
:1004300000C000002F5F3F4FF4CF0895DC0183E23E
:100440008093A00083E08093A100E1E0F1E090813F
:1004500090619083908198609083E2E0F1E09081D8
:100460009860908381E090E011969C938E93139610
:100470001C921E9212970895CF92DF92EF92FF92F4
:100480000F931F93CF93DF936C018B017A01FC01D3
:1004900080819181019721F460E070E0C60147D02E
:1004A000E2E0F1E0808188608083F60111821082B1
:1004B000C281D381C017D107BCF4C017D1075CF546
:1004C0009E01220F331FCE01880F991F880F991F9D
:1004D000880F991F820F931F9093AB008093AA00FF
:1004E000C7019DDF2196E9CF0C171D07A4F49E01DB
:1004F000220F331FCE01880F991F880F991F880F75
:10050000991F820F931F9093AB008093AA00C7019D
:1005100086DF2197E9CFF60113830283DF91CF9124
:100520001F910F91FF90EF90DF90CF900895CF92A1
:10053000DF92EF92FF920F931F93CF93DF936C01A3
:100540008B017A01FC0180819181892B21F460E08B
:1005500070E0C60191DFE2E0F1E08081108281E08D
:1005600090E0F60191838083C281D381C017D107C7
:10057000BCF4C017D1075CF59E01220F331FCE01DA
:10058000880F991F880F991F880F991F820F931F3B
:100590009093AB008093AA00C70141DF2196E9CF79
:1005A0000C171D07A4F49E01220F331FCE01880FE4
:1005B000991F880F991F880F991F820F931F90937F
:1005C000AB008093AA00C7012ADF2197E9CFF6018B
:1005D00013830283DF91CF911F910F91FF90EF90D2
:1005E000DF90CF900895AB01FC0120813181232B56
:1005F00021F460E070E040CF089560E070E097CFB4
:1006000008950F931F93CF93DF931F92CDB7DEB75B
:100610008C0194D0CE01019691D06EE7C8019BD099
:1006200069E0C80198D060E0C80195D060E0C801D9
:1006300092D062E0C8018FD06FEFC8018CD065EF17
:10064000C80189D06FEEC80186D06EE7C80183D09B
:1006500066E0C80180D060E0C8017DD060E0C801DC
:100660007AD06EE1C80177D06FEFC80174D06CED1D
:10067000C80171D06FEEC8016ED00F90DF91CF919D
:100680001F910F9108950F931F93CF93DF93EC0168
:100690008B0161307105B9F46EE75DD06FE0CE017A
:1006A0005AD060E0CE0157D061E0CE0154D061E075
:1006B000CE0151D06FEFCE014ED06FEECE014BD0B8
:1006C0006FEECE0148D002301105C1F46EE7CE01C5
:1006D00042D06FE0CE013FD060E0CE013CD061E07F
:1006E000CE0139D062E0CE0136D06FEFCE0133D0EB
:1006F0006EEECE0130D06FEECE012DD0033011055D
:10070000C1F46EE7CE0127D06FE0CE0124D060E0C7
:10071000CE0121D061E0CE011ED063E0CE011BD01E
:100720006FEFCE0118D06DEECE0115D06FEECE0179
:1007300012D0DF91CF911F910F91089588E690E03C
:100740009093D5008093D40088E18093D10086E017
:100750008093D20008958091D00085FFFCCF6093F4
:10076000D6000895EE0FFF1F881F8BBF0790F691EC
:08077000E02D1994F894FFCF6D
:00000001FF
