:1000000072C0000091C000008FC000008EC10000CF
:10001000B3C1000089C0000087C0000085C0000097
:1000200083C0000081C000007FC000007DC00000D0
:100030007BC0000079C0000077C0000075C00000E0
:1000400073C0000071C000006FC000006DC00000F0
:100050006BC0000069C0000067C0000065C0000000
:1000600063C0000061C000005FC000005DC0000010
:100070005BC0000059C0000057C0000055C0000020
:1000800053C0000051C000004FC000004DC0000030
:100090004BC0000049C0000047C0000045C0000040
:1000A00043C0000041C000003FC000003DC0000050
:1000B0003BC0000039C0000037C0000035C0000060
:1000C00033C0000031C000002FC000002DC0000070
:1000D0002BC0000029C0000027C0000025C0000080
:1000E00023C00000E30111241FBECFEFD1E2DEBF29
:1000F000CDBF00E00CBF22E0A0E0B2E001C01D9245
:10010000A930B207E1F710E0C3E7D0E000E005C096
:1001100021970109802FFE014FD2C237D10780E01D
:100120000807B1F7A0D050C26BCF0F931F93CF93A6
:10013000DF9300D01F921F92CDB7DEB78C018BD119
:10014000C80101967DD0C801029670D0C8010396FF
:1001500040D1CE0105967FD1CE01049671D0CE015B
:10016000039664D0CE01019634D189819A81F80139
:10017000948383830F900F900F900F900F90DF91D7
:10018000CF911F910F910895CF93DF93EC017E8360
:100190006D83615071096A30710518F462E070E096
:1001A0009CD18D819E810B9721F463E070E0CE019C
:1001B00094D18D819E8184309105E1F034F48230B8
:1001C000910561F0039781F02EC08830910501F10F
:1001D0008B30910529F1069731F512C064E670E085
:1001E000CE0103960AD11FC06CE370E0CE010396E6
:1001F00004D119C064E670E0CE010396FED013C0AE
:100200002396CE0123D164E170E0CE010AD10BC068
:100210002396CE011BD164E670E0CE01EED003C080
:10022000CE01039613D1DF91CF91089583EA809395
:10023000800081E0809381008FEF84B915B8089524
:1002400083EA8093800081E0809381008FEF84B9FE
:1002500015B80895019731F46F3F7F4F19F480E08E
:1002600092E063CF0895CF93DF931F921F92CDB793
:10027000DEB7CE010196ADD064E670E0CE01019606
:10028000BCD02FEF83ED90E3215080409040E1F708
:1002900000C0000064E170E0CE010196C2D02FEFF3
:1002A00083ED90E3215080409040E1F700C00000D2
:1002B0002FEF83ED90E3215080409040E1F700C0A4
:1002C0000000DACF8DB38C608DBBE9E6F0E0808171
:1002D000806F808308958DB3837F8DBBE9E6F0E066
:1002E00080818F7080830895F6DF8091070290915E
:1002F000080201969093080280930702609107021A
:100300007091080280E092E03FDF809107029091B7
:10031000080285B92FEF87E893E121508040904093
:10032000E1F700C00000CECF08951F920F920FB6E4
:100330000F9211240BB60F922F933F934F935F931D
:100340006F937F938F939F93AF93BF93EF93FF939D
:10035000CBDFFF91EF91BF91AF919F918F917F91F3
:100360006F915F914F913F912F910F900BBE0F9026
:100370000FBE0F901F9018951F920F920FB60F92FD
:1003800011240BB60F922F933F934F935F936F936C
:100390007F938F939F93AF93BF93EF93FF93A4DFCC
:1003A000FF91EF91BF91AF919F918F917F916F914D
:1003B0005F914F913F912F910F900BBE0F900FBE09
:1003C0000F901F9018956FEF7FEF81E090E042CF84
:1003D000089583E28093A00083E08093A100E1E090
:1003E000F1E0808180618083808188608083E2E0A9
:1003F000F1E08081886080830895CB01880F991F88
:10040000660F771F660F771F660F771F680F791FBC
:100410007093AB006093AA00E2E0F1E0808110826B
:100420000895CB01880F991F660F771F660F771FFE
:10043000660F771F680F791F7093AB006093AA0057
:10044000E2E0F1E080818860808308951092AB0043
:100450001092AA0008950F931F93CF93DF931F92DA
:10046000CDB7DEB78C0194D0CE01019691D06EE766
:10047000C8019BD069E0C80198D060E0C80195D060
:1004800060E0C80192D062E0C8018FD06FEFC80170
:100490008CD065EFC80189D06FEEC80186D06EE7B9
:1004A000C80183D066E0C80180D060E0C8017DD07B
:1004B00060E0C8017AD06EE1C80177D06FEFC80163
:1004C00074D06CEDC80171D06FEEC8016ED00F9082
:1004D000DF91CF911F910F9108950F931F93CF93A9
:1004E000DF93EC018B0161307105B9F46EE75DD0EB
:1004F0006FE0CE015AD060E0CE0157D061E0CE016E
:1005000054D061E0CE0151D06FEFCE014ED06FEEEE
:10051000CE014BD06FEECE0148D002301105C1F4B0
:100520006EE7CE0142D06FE0CE013FD060E0CE0159
:100530003CD061E0CE0139D062E0CE0136D06FEF21
:10054000CE0133D06EEECE0130D06FEECE012DD085
:1005500003301105C1F46EE7CE0127D06FE0CE0164
:1005600024D060E0CE0121D061E0CE011ED063E056
:10057000CE011BD06FEFCE0118D06DEECE0115D09D
:100580006FEECE0112D0DF91CF911F910F910895A0
:1005900088E690E09093D5008093D40088E1809322
:1005A000D10086E08093D20008958091D00085FF2D
:1005B000FCCF6093D6000895EE0FFF1F881F8BBFFE
:0C05C0000790F691E02D1994F894FFCFFD
:00000001FF
