:1000000071C0000081C000007FC000000CC1000072
:1000100031C1000079C0000077C0000075C0000049
:1000200073C0000071C000006FC000006DC0000010
:100030006BC0000069C0000067C0000065C0000020
:1000400063C0000061C000005FC000005DC0000030
:100050005BC0000059C0000057C0000055C0000040
:1000600053C0000051C000004FC000004DC0000050
:100070004BC0000049C0000047C0000045C0000060
:1000800043C0000041C000003FC000003DC0000070
:100090003BC0000039C0000037C0000035C0000080
:1000A00033C0000031C000002FC000002DC0000090
:1000B0002BC0000029C0000027C0000025C00000A0
:1000C00023C0000021C000001FC000001DC00000B0
:1000D0001BC0000019C0000017C0000015C00000C0
:1000E00013C0000011241FBECFEFD1E2DEBFCDBF91
:1000F00000E00CBF22E0A0E0B2E001C01D92A230FF
:10010000B207E1F7DED0AEC17BCF0F931F93CF9341
:10011000DF9300D01F92CDB7DEB78C01ECD0C801C1
:1001200001964BD0C80102963ED0C8010396E2D09A
:10013000CE010496E0D0CE0103963FD0CE010296C8
:1001400032D0CE010196D6D0CE01049619D10F90AF
:100150000F900F900F90DF91CF911F910F91089505
:10016000CF93DF93EC0161E070E00CD12FEF87EAD1
:1001700091E6215080409040E1F700C0000062E02D
:1001800070E0CE01FFD02FEF87EA91E6215080404A
:100190009040E1F700C0000063E070E0CE01F2D0D3
:1001A000DF91CF91089583EA8093800081E080936E
:1001B00081008FEF84B915B8089583EA8093800099
:1001C00081E0809381008FEF84B915B808958DB3D5
:1001D0008C608DBBE9E6F0E08081806F80830895BC
:1001E0008DB3837F8DBBE9E6F0E080818F708083E3
:1001F0000895F6DF8091000290910102019690939C
:10020000010280930002809100029091010285B961
:100210002FEF87E893E1215080409040E1F700C044
:100220000000D5CF08951F920F920FB60F921124A0
:100230000BB60F922F933F934F935F936F937F93E0
:100240008F939F93AF93BF93EF93FF93D2DFFF9171
:10025000EF91BF91AF919F918F917F916F915F913E
:100260004F913F912F910F900BBE0F900FBE0F90AB
:100270001F9018951F920F920FB60F9211240BB674
:100280000F922F933F934F935F936F937F938F932F
:100290009F93AF93BF93EF93FF93ABDFFF91EF91EA
:1002A000BF91AF919F918F917F916F915F914F918E
:1002B0003F912F910F900BBE0F900FBE0F901F908C
:1002C0001895CF93DF9300D01F92CDB7DEB78FEF95
:1002D00084B915B88DB384608DBBE9E6F0E0808108
:1002E000806380837894CE0101960FDFCE01019662
:1002F00037DFFFCF08950F931F93CF93DF931F92A4
:10030000CDB7DEB78C0199D0CE01019696D06EE7BD
:10031000C801A1D069E0C8019ED060E0C8019BD0AF
:1003200060E0C80198D062E0C80195D06FEFC801C5
:1003300092D065EFC8018FD06FEEC8018CD06EE708
:10034000C80189D066E0C80186D060E0C80183D0CA
:1003500060E0C80180D06EE1C8017DD06FEFC801B8
:100360007AD06CEDC80177D06FEEC80174D0CE01A1
:10037000019670D00F90DF91CF911F910F9108954A
:1003800069C008950F931F93CF93DF93EC018B0106
:1003900061307105B9F46EE75ED06FE0CE015BD0DD
:1003A00060E0CE0158D061E0CE0155D061E0CE01D1
:1003B00052D06FEFCE014FD06FEECE014CD06FEE2A
:1003C000CE0149D002301105C1F46EE7CE0143D011
:1003D0006FE0CE0140D060E0CE013DD061E0CE01C3
:1003E0003AD062E0CE0137D06FEFCE0134D06EEE5E
:1003F000CE0131D06FEECE012ED003301105C1F405
:100400006EE7CE0128D06FE0CE0125D060E0CE01AE
:1004100022D061E0CE011FD063E0CE011CD06FEF8F
:10042000CE0119D06DEECE0116D06FEECE0113D0F5
:10043000DF91CF911F910F91089588E690E09093FE
:10044000D5008093D40088E18093D10086E080932A
:10045000D200089508958091D00085FFFCCF60936D
:08046000D6000895F894FFCFC7
:00000001FF
