S01100004D6172696F4B6172742E7372656389
S113000071C00000E1C0000006C100007DC0000016
S11300107BC0000079C0000077C0000075C00000FC
S113002073C0000071C000006FC000006DC000000C
S11300306BC0000069C0000067C0000065C000001C
S113004063C0000061C000005FC000005DC000002C
S11300505BC0000059C0000057C0000055C000003C
S113006053C0000051C000004FC000004DC000004C
S11300704BC0000049C0000047C0000045C000005C
S113008043C0000041C000003FC000003DC000006C
S11300903BC0000039C0000037C0000035C000007C
S11300A033C0000031C000002FC000002DC000008C
S11300B02BC0000029C0000027C0000025C000009C
S11300C023C0000021C000001FC000001DC00000AC
S11300D01BC0000019C0000017C0000015C00000BC
S11300E013C0000011241FBECFEFD1E2DEBFCDBF8D
S11300F000E00CBF22E0A0E0B2E001C01D92A330FA
S1130100B207E1F7AFD086C17BCF0F931F93CF9394
S1130110DF9300D0CDB7DEB78C01C5D0C8010196FE
S11301202CD0C80102961ED0CE010396BCD0CE01BD
S1130130029623D0CE01019615D0CE0101961CD093
S1130140CE01029624D0CE010396F2D00F900F90E8
S11301500F90DF91CF911F910F91089561E070E0AE
S1130160E9C0089583EA8093800081E08093810050
S11301708FEF84B915B80895089583EA80938000B9
S113018081E0809381008FEF84B915B808950895B4
S113019080910002811117C081E080930002809158
S11301A0010290910202019690930202809301024F
S11301B02FEF81EE94E0215080409040E1F700C0A1
S11301C000001092000208951F920F920FB60F9232
S11301D011240BB60F922F933F934F935F936F931A
S11301E07F938F939F93AF93BF93EF93FF93D0DF4E
S11301F0FF91EF91BF91AF919F918F917F916F91FB
S11302005F914F913F912F910F900BBE0F900FBEB6
S11302100F901F9018951F920F920FB60F921124F2
S11302200BB60F922F933F934F935F936F937F93EC
S11302308F939F93AF93BF93EF93FF93A9DFFF91A6
S1130240EF91BF91AF919F918F917F916F915F914A
S11302504F913F912F910F900BBE0F900FBE0F90B7
S11302601F901895CF93DF9300D0CDB7DEB78FEFF3
S113027081B90799FECF7894CE01019646DFCE016D
S113028001966CDFCE01039677DFCE0102967FDF05
S1130290CE0101964DD080E090E00F900F900F902A
S11302A0DF91CF9108950F931F93CF93DF931F9204
S11302B0CDB7DEB78C0199D0CE01019696D06EE70A
S11302C0C801A1D069E0C8019ED060E0C8019BD0FC
S11302D060E0C80198D062E0C80195D06FEFC80112
S11302E092D065EFC8018FD06FEEC8018CD06EE755
S11302F0C80189D066E0C80186D060E0C80183D017
S113030060E0C80180D06EE1C8017DD06FEFC80104
S11303107AD06CEDC80177D06FEEC80174D0CE01ED
S1130320019670D00F90DF91CF911F910F91089596
S113033069C008950F931F93CF93DF93EC018B0152
S113034061307105B9F46EE75ED06FE0CE015BD029
S113035060E0CE0158D061E0CE0155D061E0CE011D
S113036052D06FEFCE014FD06FEECE014CD06FEE76
S1130370CE0149D002301105C1F46EE7CE0143D05D
S11303806FE0CE0140D060E0CE013DD061E0CE010F
S11303903AD062E0CE0137D06FEFCE0134D06EEEAA
S11303A0CE0131D06FEECE012ED003301105C1F451
S11303B06EE7CE0128D06FE0CE0125D060E0CE01FB
S11303C022D061E0CE011FD063E0CE011CD06FEFDC
S11303D0CE0119D06DEECE0116D06FEECE0113D042
S11303E0DF91CF911F910F91089588E690E090934B
S11303F0CD008093CC0088E18093C90086E080938F
S1130400CA00089508958091C80085FFFCCF6093C9
S10B0410CE000895F894FFCF1B
S9030000FC
