S01100004D6172696F4B6172742E7372656389
S113000073C0000092C0000090C000009BC10000BB
S1130010C0C100008AC0000088C0000086C0000083
S113002084C0000082C0000080C000007EC00000C8
S11300307CC000007AC0000078C0000076C00000D8
S113004074C0000072C0000070C000006EC00000E8
S11300506CC000006AC0000068C0000066C00000F8
S113006064C0000062C0000060C000005EC0000008
S11300705CC000005AC0000058C0000056C0000018
S113008054C0000052C0000050C000004EC0000028
S11300904CC000004AC0000048C0000046C0000038
S11300A044C0000042C0000040C000003EC0000048
S11300B03CC000003AC0000038C0000036C0000058
S11300C034C0000032C0000030C000002EC0000068
S11300D02CC000002AC0000028C0000026C0000078
S11300E024C000002302290211241FBECFEFD1E255
S11300F0DEBFCDBF00E00CBF22E0A0E0B2E001C053
S11301001D92A930B207E1F710E0C3E7D0E000E0A8
S113011005C021970109802FFE0165D2C237D1079E
S113012080E00807B1F77ED166C26ACF0F931F93B0
S1130130CF93DF9300D01F921F92CDB7DEB78C010F
S11301409BD1C80101969FD0C80102968BD0C801EB
S1130150039685D1CE0105968FD1CE01049693D016
S1130160CE0103967FD0CE01019679D189819A81FF
S1130170F80194838383CE010596C3D10F900F9029
S11301800F900F900F90DF91CF911F910F910895D1
S1130190CF93DF93EC017E836D83615071096A30E4
S11301A0710518F462E070E0AED18D819E810B97E9
S11301B021F463E070E0CE01A6D18D819E8184306C
S11301C09105E1F034F48230910561F0039781F0F8
S11301D02EC08830910501F18B30910529F10697E5
S11301E031F512C064E670E0CE01039639D11FC028
S11301F06CE370E0CE01039633D119C064E670E07D
S1130200CE0103962DD113C02396CE0131D164E1E2
S113021070E0CE0129D10BC02396CE0129D164E62A
S113022070E0CE011DD103C0CE01039621D1DF9130
S1130230CF910895CF93DF93EC0161E070E063D137
S11302402FEF81E19AE7215080409040E1F700C010
S11302500000CE01019621D0CE0102960DD0DF918F
S1130260CF91089583EA8093800081E08093810098
S11302708FEF84B915B8089581E590E090938B00D1
S113028080938A00089583EA8093800081E08093BC
S113029081008FEF84B915B8089586E194EF9093A7
S11302A089008093880008950F931F93CF93DF9361
S11302B0EC018B01019731F46F3F7F4F19F480E01B
S11302C092E034DFCD2B31F40F3F1F4F19F480E05F
S11302D092E017D1DF91CF911F910F9108958DB3C3
S11302E08C608DBBE9E6F0E08081806F80830895A7
S11302F08DB3837F8DBBE9E6F0E080818F708083CE
S11303000895F6DF80910702909108020196909378
S1130310080280930702609107027091080280E04E
S113032092E036DF809107029091080285B92FEFA1
S113033087E893E1215080409040E1F700C000003D
S1130340CECF08951F920F920FB60F9211240BB6C1
S11303500F922F933F934F935F936F937F938F935A
S11303609F93AF93BF93EF93FF93CBDFFF91EF91F5
S1130370BF91AF919F918F917F916F915F914F91B9
S11303803F912F910F900BBE0F900FBE0F901F90B7
S113039018951F920F920FB60F9211240BB60F925D
S11303A02F933F934F935F936F937F938F939F9379
S11303B0AF93BF93EF93FF93A4DFFF91EF91BF91AE
S11303C0AF919F918F917F916F915F914F913F91E9
S11303D02F910F900BBE0F900FBE0F901F9018958A
S11303E021E030E081E090E024363105A4F485B9C1
S11303F0880F991F8138910514F081E090E04FEF48
S113040059EF60E0415050406040E1F700C0000007
S11304102F5F3F4FE9CF15B8089511B80799FECF64
S1130420DFCF08958FEF84B915B8F7DF8DB38460FB
S11304308DBBE9E6F0E0808180638083789480E07E
S113044092E0F8DEFFCF6FEF7FEF81E090E02CCFFA
S113045008956FEF7FEF80E090E026CF0895089530
S1130460FC01718360830895FC01718360830895A6
S1130470FC011182108208950F931F93CF93DF9391
S11304801F92CDB7DEB78C0199D0CE01019696D0DC
S11304906EE7C801A1D069E0C8019ED060E0C80140
S11304A09BD060E0C80198D062E0C80195D06FEF9E
S11304B0C80192D065EFC8018FD06FEEC8018CD00F
S11304C06EE7C80189D066E0C80186D060E0C80143
S11304D083D060E0C80180D06EE1C8017DD06FEFA9
S11304E0C8017AD06CEDC80177D06FEEC80174D022
S11304F0CE01019670D00F90DF91CF911F910F9193
S1130500089569C008950F931F93CF93DF93EC016F
S11305108B0161307105B9F46EE75ED06FE0CE01F6
S11305205BD060E0CE0158D061E0CE0155D061E0EF
S1130530CE0152D06FEFCE014FD06FEECE014CD032
S11305406FEECE0149D002301105C1F46EE7CE0141
S113055043D06FE0CE0140D060E0CE013DD061E0F9
S1130560CE013AD062E0CE0137D06FEFCE0134D065
S11305706EEECE0131D06FEECE012ED003301105D8
S1130580C1F46EE7CE0128D06FE0CE0125D060E043
S1130590CE0122D061E0CE011FD063E0CE011CD099
S11305A06FEFCE0119D06DEECE0116D06FEECE01F5
S11305B013D0DF91CF911F910F91089588E690E0B9
S11305C09093D5008093D40088E18093D10086E095
S11305D08093D200089508958091D00085FFFCCFC8
S11305E06093D6000895EE0FFF1F881F8BBF0790FE
S11305F0F691E02D199410E0C3E7D0E000E005C0C7
S1130600802FFE01F0DF2196011DC437D10780E061
S10B06100807B1F7F894FFCFCD
S9030000FC
